:10000000F0EF00F00000000000EF00F00000000042
:0A0010000000000000000000F3D71C
:0E001C00570E0D6E0D2EFED7000000001200D4
:10002A00C26A070EC012C08E3FC000F000360090B0
:10003A00003600900050C212C280EBDFC282C2A218
:10004A0001D0FDD7C4CF01F0006AC3500012000EE0
:06005A000112C290120029
:10006000086A096A100E0C6E01340836093604500D
:10007000085E0550D8A0053C095ED8B007D00450F2
:1000800008260550D8B0053C0926D8900036013620
:060090000C2EEAD712005D
:10009600010E416E000E426E036A046A000E045C95
:1000A60002E1100E035C17E241503F14016E40500E
:1000B6004214026E000E021802E1000E011802E15F
:1000C600829401D08284828C829C41364190423651
:0C00D600034A042AE3D7828E829E1200A7
:1000E2000050040204BEF45E045000BEF45EF3CF7E
:0800F20000F0F4CF01F0120050
:1000FA003FC002F040C003F002C000F003C001F0AC
:10010A00024A032A00C0E9FF01C0EAFFEE5201E0F9
:10011A00F3D73F50025C006E40500358016E010E47
:08012A00005E000E015A1200F4
:100132000900F5CFE6FF0006FBE10106F9E1120036
:100142000D6A086A0050D8B4000C04180A6E0ABE80
:100152000D1E0B6A04AE02D0041E042A00AE02D0A9
:10016200001E002A005004100A6E0ABE1FD004505E
:10017200085E003600340836045008260036060EA3
:100182000C6E00340836045000B0085E00A0082649
:1001920000360C2EF6D700A008260BB015D00DAEF7
:1001A200000C001E002A081E082A000C04AE09D00A
:1001B20000BE04D00050086E006AF1D7006A002A1F
:1001C200000C001E0B2AD3D7082A0450085CD8A4BE
:0E01D200E6D7086A002A00AEE2D7FF0C120042
:1001E000C7EC03F0070EB46EC26A0E0EC16E946ABD
:1001F000936A010E926E260E3F6E000E406E7DDFFA
:1002000000C037F0366A800E3618006E800E371840
:10021000005CD8B030D1356A15C004F0080E006E0D
:1002200090DF800E3518016E800E0018015CD8B08A
:1002300020D1316A800E3118006E800E080A005CF1
:10024000D8B093D0260EE96E000EEA6E3650E9263D
:10025000000E36BEFF0EEA22EECF00F000C030F0F6
:10026000200E005C056E066A000E065A030E046E30
:1002700005C000F006C001F0000E06BEFF0E026EC3
:10028000036E045007E00036009001360236033654
:10029000FF0FF8D77A0E0026040E0122000E02226C
:1002A00031500024F66E000E31BEFF0E0120F76EB5
:1002B000000E31BEFF0E0220F86E0900F5CF34F0BB
:1002C00031C000F0000E31BEFF0E016E003600900E
:1002D0000136160E00243D6E000E01203E6E3DC01C
:1002E000E9FF3EC0EAFFEECF01F0EECF02F015C00D
:1002F00000F001C03BF002C03CF0005005E03B368E
:100300003B903C36FF0FFAD715500808396E3A6A11
:10031000000E15BEFF0E3A5A35C000F015C004F0AD
:10032000E0DE0050395C006E01503A58016E00C0AA
:1003300001F034C000F0015006E00032009E00BC25
:10034000008EFF0FF9D7000E00BEFF0E016E3B506E
:1003500000123C5001123DC0E1FF3EC0E2FF00C070
:10036000E6FF01C0E6FF312A65D73F6A5EDE0A0E6E
:10037000046E000E056E74DE0A0E0024326E000E4E
:100380000120336E386A000E38BEFF0E006E335007
:10039000005C02E13250385C6AE2FE0E816E18C0E9
:1003A0003FF019C040F077DE270E0D6E0D2EFED700
:1003B00000000000FD0E816E1AC03FF01BC040F02F
:1003C0006ADE270E0D6E0D2EFED700000000FB0E1C
:1003D000816E1CC03FF01DC040F05DDE270E0D6E2B
:1003E0000D2EFED700000000F70E816E1EC03FF0FC
:1003F0001FC040F050DE270E0D6E0D2EFED7000000
:100400000000EF0E816E20C03FF021C040F043DEBF
:10041000270E0D6E0D2EFED700000000DF0E816E40
:1004200022C03FF023C040F036DE270E0D6E0D2EA9
:10043000FED700000000BF0E816E24C03FF025C033
:1004400040F029DE270E0D6E0D2EFED700000000B5
:100450007E0E816E16C03FF017C040F01CDE270EE6
:100460000D6E0D2EFED700000000382A8CD7352ADD
:0A047000D3D6362AC8D6C6D6FFD769
:10078E0010EE15F01B0E006E010E016E720EF66E5F
:0E079E00070EF76E000EF86E99EC00F01200D8
:10047A000000000000000000040404040404000456
:10048A000A0A0A0000000000000A1F0A1F0A1F0ABF
:10049A00070C140C0605061C191A020404080B138F
:1004AA00060A1214091616090404040000000000C2
:1004BA0002040808080804020804020202020408E6
:1004CA00150E1F0E15000000000004041F0404008E
:1004DA000000000000060408000000000E000000F2
:1004EA0000000000000000040102020404080810D1
:1004FA000E1113111511190E040C14040404041F0F
:10050A000E1111020408101F0E11010E0101110E25
:10051A00101014141F0404041F10101E0101011EE0
:10052A000708101E1111110E1F0101010204081003
:10053A000E11110E1111110E0E11110F01010101EF
:10054A000004040000040400000404000004040879
:10055A0001020408080402010000001E001E000037
:10056A0010080402020408100E1111020404000407
:10057A000E1111151511111E0E1111111F11111144
:10058A001E11111E1111111E070810101010080754
:10059A001C1211111111121C1F10101E1010101F05
:1005AA001F10101E101010100E1110101711110E1E
:1005BA001111111F111111111F0404040404041F45
:1005CA001F0404040404140811121418141211113B
:1005DA00101010101010101F111B1F1511111111DE
:1005EA0011191915151313110E1111111111110EDB
:1005FA001E11111E101010100E1111111115130FCA
:10060A001E11111E141211110E1110080601110EDD
:10061A001F04040404040404111111111111110E10
:10062A001111111111110A04111111111115150AC3
:10063A0011110A04040A111111110A040404040410
:10064A001F0102040810101F0E0808080808080EE7
:10065A0010080804040202010E0202020202020E3B
:10066A00040A110000000000000000000000001F42
:10067A0008040000000000000000000E1212120F11
:10068A00001010101C12121C0000000E1010100E88
:10069A0000010101070909070000001C121E100EC3
:1006AA000003040406040404000E0A0A0E02020CE3
:1006BA00001010101C12121200000400040404049A
:1006CA00000200020202020C001010141818141082
:1006DA00001010101010100C0000000A1511111152
:1006EA00000000141A1212120000000C1212120C4E
:1006FA00001C12121C101010000E12120E0202011F
:10070A000000000A0C08080800000E100804021E67
:10071A000010101C1010100C000000121212120C03
:10072A000000001111110A04000000111111150A2C
:10073A00000000110A040A110000110A0408081036
:10074A000000001F0204081F020404040804040233
:10075A000404040404040404080404040204040849
:08076A000000000A1E1400004B
:010772000185
:100773000000000000000000000000000000000076
:0A07830055534D414E202E2E2E003E
:020000040030CA
:0E000000000E1F1EFF8381FF0FC00FE00F4098
:00000001FF
